:08000000803102288731FD2F39
:100F220051011308F83904389300080043011B14D7
:100F32001B189C2F9D2F992F080043011B151B196D
:100F4200A32FA42FA02F080043011A08F039083854
:100F52009A009A161D3097000800F00070084301AD
:100F620096001918B52FB62FB22F4E010F1DBA2FAA
:100F7200BB2FB62F0F1143011B1BC02FC12FBC2F3C
:100F82000800FF30F1050F30F205873197278731CE
:100F92001E308731AE2787311C308731AE2787312B
:100FA20072080F398731AE27873171088731AE2732
:100FB200873187319E278731080087319127873112
:100FC2004001931413157E01C3104311213099007F
:100FD20022309A0009307D01C8000A30C9008731E9
:100FE200A5278731FF30F1000730F2008731C22791
:0E0FF2008731F32F8031022840018731DE2F36
:020000040001F9
:0A000E008C3FFF3F9F3FFF3FFF3F85
:00000001FF
