:08000000803102288731FD2F39
:100DD00051011308F83905389300080043011B142A
:100DE0001B18F32EF42EF02E080043011B151B19BF
:100DF000FA2EFB2EF72E080043011A08F0390838A6
:100E00009A009A16093097000800F030F000003080
:100E1000873111278731F001013087311127873160
:100E20000800F1008631EE268731403043019600FC
:100E300019181B2F1C2F182F1B1B1F2F202F1C2F87
:100E4000710896001918252F262F222F1B1B292FDA
:100E50002A2F262F7008960019182F2F302F2C2F8D
:100E60001B1B332F342F302F8631F5268731080096
:100E7000F5004130750603193E2F3F2F442F1330E4
:100E8000F6000030F700482F1230F6000030F7006F
:100E90007608F900790887316F278731F8007308E1
:100EA0000319532F542F5E2F0130F400720A592F6B
:100EB000F435890B582F7408F804682F0130F400BA
:100EC000720A632FF435890B622F7408FF3AF80514
:100ED0007808F00079088731112787310800F00081
:100EE0008631EE2687314030430196001918792F5C
:100EF0007A2F762F1B1B7D2F7E2F7A2F700896005E
:100F00001918832F842F802F1B1B872F882F842F46
:100F10009B149B188C2F8D2F892F41309600191808
:100F2000922F932F8F2F1B1B962F972F932F9B154D
:100F300019189B2F9C2F982F1608F1001B169B1633
:100F40001B1EA32FA42FA02F8631F52687317108F1
:100F500008004001931413158631E8268731863145
:100F6000FC2687318731052787310330F200F301F2
:100F700042308731382787310030FD000030FC00D7
:100F80000030FB000030FA000130FA070030FB3D72
:100F9000FC3DFD3D7D08031DD72F80307A021A30BD
:100FA0007B3B06307C3B031CD62FD72FC42F02304F
:100FB000F200F301F30A42308731382787310030DD
:100FC000FD000030FC000030FB000030FA00013072
:100FD000FA070030FB3DFC3DFD3D7D08031DFA2F67
:100FE00080307A021A307B3B06307C3B031CF92FA1
:100FF000FA2FE72FB52F8031022840018731A92F22
:020000040001F9
:0A000E008C3FFF3F9F3FFF3FFF3F85
:00000001FF
