:08000000803102288731EB2F4B
:100D180051011308F83905389300080043011B14E2
:100D28001B18972E982E942E080043011B151B198B
:100D38009E2E9F2E9B2E080043011A08F039083872
:100D48009A00093097009A160800FE0012001E004B
:100D58000130FE020030FF3B7F087E04031DAA2EEF
:100D680000347E01C3104311400193141315093058
:100D78007D01C8000A30C90017307E01990018307B
:100D88009A00080086318C2686318631B526863150
:100D98008631A0268631FF30F8000F30F900790837
:100DA800F1007808F000183087310B278631FC01F4
:100DB800FD010130FC070030FD3D7D08803AF70059
:100DC800A3307702031DEA2E28307C02031CED2E87
:100DD800EE2EDD2E0030F000F100183087310B27A1
:100DE8008631FC01FD010130FC070030FD3D7D0826
:100DF800803AF700A3307702031D042F28307C02C5
:100E0800031C072F082FF72ED32E80310228F40059
:100E18007108F3007008F2000430F336F20C890B05
:100E2800112F7208F5007008F2000430F235890BB2
:100E38001A2F7208F039F600863192268731183059
:100E4800430196001B1B292F2A2F262F19182D2FF7
:100E58002E2F2A2F4E010F1D322F332F2E2F0F1119
:100E68007408430196001B1B3A2F3B2F372F191884
:100E78003E2F3F2F3B2F4E010F1D432F442F3F2F57
:100E88000F117508430196001B1B4B2F4C2F482F41
:100E980019184F2F502F4C2F4E010F1D542F552F1F
:100EA800502F0F117608430196001B1B5C2F5D2FF6
:100EB800592F1918602F612F5D2F4E010F1D652FB7
:100EC800662F612F0F11863199268731080000346B
:100ED8000834C83408348F34093452340A340F348F
:100EE8000B34C5340B3471340C3412340D34A7343C
:100EF8000D342E340E34A6340E340D340F346334CE
:100F08000F34A7340F34D8340F34F5340F34FF348A
:100F18000F34F5340F34D8340F34A7340F34633416
:100F28000F340D340F34A6340E342E340E34A73457
:100F38000D3412340D3471340C34C5340B340F3481
:100F48000B3452340A348F340934C834083400342A
:100F580008343734073470340634AD340534F0348B
:100F680004343A3404348E340334ED3402345834BF
:100F78000234D134013459340134F23400349C340D
:100F8800003458340034273400340A340034003430
:100F980000340A34003427340034583400349C3484
:100FA8000034F234003459340134D1340134583423
:100FB8000234ED3402348E3403343A340434F034D9
:100FC8000434AD34053470340634373407346B30A8
:100FD8008400873085007030860027308700003015
:100FE800FF0080308631A9268731FA01FB01FC0118
:080FF800FD0140018631C62E07
:020000040001F9
:0A000E008C3FFF3F9F3FFF3FFF3F85
:00000001FF
